{
  "address": "0x8821e6bb78B4cB4BC8aE34372aDd10Df4A2F84Da",
  "abi": [
    {
      "inputs": [
        {
          "internalType": "address",
          "name": "_owner",
          "type": "address"
        }
      ],
      "stateMutability": "nonpayable",
      "type": "constructor"
    },
    {
      "anonymous": false,
      "inputs": [
        {
          "indexed": true,
          "internalType": "address",
          "name": "owner",
          "type": "address"
        },
        {
          "indexed": true,
          "internalType": "address",
          "name": "spender",
          "type": "address"
        },
        {
          "indexed": false,
          "internalType": "uint256",
          "name": "value",
          "type": "uint256"
        }
      ],
      "name": "Approval",
      "type": "event"
    },
    {
      "anonymous": false,
      "inputs": [
        {
          "indexed": false,
          "internalType": "address",
          "name": "player",
          "type": "address"
        }
      ],
      "name": "BeginPlay",
      "type": "event"
    },
    {
      "anonymous": false,
      "inputs": [
        {
          "indexed": false,
          "internalType": "address",
          "name": "recipient",
          "type": "address"
        }
      ],
      "name": "TokensReleased",
      "type": "event"
    },
    {
      "anonymous": false,
      "inputs": [
        {
          "indexed": true,
          "internalType": "address",
          "name": "from",
          "type": "address"
        },
        {
          "indexed": true,
          "internalType": "address",
          "name": "to",
          "type": "address"
        },
        {
          "indexed": false,
          "internalType": "uint256",
          "name": "value",
          "type": "uint256"
        }
      ],
      "name": "Transfer",
      "type": "event"
    },
    {
      "inputs": [],
      "name": "MAX_TRANSACTIONS_PER_DAY",
      "outputs": [
        {
          "internalType": "uint256",
          "name": "",
          "type": "uint256"
        }
      ],
      "stateMutability": "view",
      "type": "function"
    },
    {
      "inputs": [],
      "name": "PayContract",
      "outputs": [],
      "stateMutability": "payable",
      "type": "function"
    },
    {
      "inputs": [
        {
          "internalType": "address",
          "name": "owner",
          "type": "address"
        },
        {
          "internalType": "address",
          "name": "spender",
          "type": "address"
        }
      ],
      "name": "allowance",
      "outputs": [
        {
          "internalType": "uint256",
          "name": "",
          "type": "uint256"
        }
      ],
      "stateMutability": "view",
      "type": "function"
    },
    {
      "inputs": [
        {
          "internalType": "address",
          "name": "spender",
          "type": "address"
        },
        {
          "internalType": "uint256",
          "name": "amount",
          "type": "uint256"
        }
      ],
      "name": "approve",
      "outputs": [
        {
          "internalType": "bool",
          "name": "",
          "type": "bool"
        }
      ],
      "stateMutability": "nonpayable",
      "type": "function"
    },
    {
      "inputs": [
        {
          "internalType": "address",
          "name": "account",
          "type": "address"
        }
      ],
      "name": "balanceOf",
      "outputs": [
        {
          "internalType": "uint256",
          "name": "",
          "type": "uint256"
        }
      ],
      "stateMutability": "view",
      "type": "function"
    },
    {
      "inputs": [
        {
          "internalType": "uint256",
          "name": "amount",
          "type": "uint256"
        }
      ],
      "name": "burn",
      "outputs": [],
      "stateMutability": "nonpayable",
      "type": "function"
    },
    {
      "inputs": [
        {
          "internalType": "address",
          "name": "account",
          "type": "address"
        },
        {
          "internalType": "uint256",
          "name": "amount",
          "type": "uint256"
        }
      ],
      "name": "burnFrom",
      "outputs": [],
      "stateMutability": "nonpayable",
      "type": "function"
    },
    {
      "inputs": [],
      "name": "burnPlayToken",
      "outputs": [],
      "stateMutability": "nonpayable",
      "type": "function"
    },
    {
      "inputs": [],
      "name": "decimals",
      "outputs": [
        {
          "internalType": "uint8",
          "name": "",
          "type": "uint8"
        }
      ],
      "stateMutability": "view",
      "type": "function"
    },
    {
      "inputs": [
        {
          "internalType": "address",
          "name": "spender",
          "type": "address"
        },
        {
          "internalType": "uint256",
          "name": "subtractedValue",
          "type": "uint256"
        }
      ],
      "name": "decreaseAllowance",
      "outputs": [
        {
          "internalType": "bool",
          "name": "",
          "type": "bool"
        }
      ],
      "stateMutability": "nonpayable",
      "type": "function"
    },
    {
      "inputs": [
        {
          "internalType": "address",
          "name": "spender",
          "type": "address"
        },
        {
          "internalType": "uint256",
          "name": "addedValue",
          "type": "uint256"
        }
      ],
      "name": "increaseAllowance",
      "outputs": [
        {
          "internalType": "bool",
          "name": "",
          "type": "bool"
        }
      ],
      "stateMutability": "nonpayable",
      "type": "function"
    },
    {
      "inputs": [],
      "name": "name",
      "outputs": [
        {
          "internalType": "string",
          "name": "",
          "type": "string"
        }
      ],
      "stateMutability": "view",
      "type": "function"
    },
    {
      "inputs": [],
      "name": "owner",
      "outputs": [
        {
          "internalType": "address",
          "name": "",
          "type": "address"
        }
      ],
      "stateMutability": "view",
      "type": "function"
    },
    {
      "inputs": [],
      "name": "sendTwoTokens",
      "outputs": [],
      "stateMutability": "payable",
      "type": "function"
    },
    {
      "inputs": [],
      "name": "symbol",
      "outputs": [
        {
          "internalType": "string",
          "name": "",
          "type": "string"
        }
      ],
      "stateMutability": "view",
      "type": "function"
    },
    {
      "inputs": [],
      "name": "totalSupply",
      "outputs": [
        {
          "internalType": "uint256",
          "name": "",
          "type": "uint256"
        }
      ],
      "stateMutability": "view",
      "type": "function"
    },
    {
      "inputs": [
        {
          "internalType": "address",
          "name": "to",
          "type": "address"
        },
        {
          "internalType": "uint256",
          "name": "amount",
          "type": "uint256"
        }
      ],
      "name": "transfer",
      "outputs": [
        {
          "internalType": "bool",
          "name": "",
          "type": "bool"
        }
      ],
      "stateMutability": "nonpayable",
      "type": "function"
    },
    {
      "inputs": [
        {
          "internalType": "address",
          "name": "from",
          "type": "address"
        },
        {
          "internalType": "address",
          "name": "to",
          "type": "address"
        },
        {
          "internalType": "uint256",
          "name": "amount",
          "type": "uint256"
        }
      ],
      "name": "transferFrom",
      "outputs": [
        {
          "internalType": "bool",
          "name": "",
          "type": "bool"
        }
      ],
      "stateMutability": "nonpayable",
      "type": "function"
    },
    {
      "inputs": [],
      "name": "withdraw",
      "outputs": [],
      "stateMutability": "nonpayable",
      "type": "function"
    }
  ],
  "transactionHash": "0xd53f075c7f639b506837e8393c77c30f5d7326484870d60d7b415b198d1129ee",
  "args": [
    "0x649B6E9D44a09E85c0fc81d17173cBA38AC16986"
  ],
  "numDeployments": 1,
  "solcInputHash": "65cf64aa7a2d4c135cd10d664e09d646",
  "bytecode": "0x60a06040523480156200001157600080fd5b5060405162001483380380620014838339810160408190526200003491620001ae565b60405180604001604052806009815260200168283630bcaa37b5b2b760b91b81525060405180604001604052806004815260200163504c415960e01b815250816003908162000084919062000284565b50600462000093828262000284565b505050620000cc33620000ab620000de60201b60201c565b620000b890600a62000465565b620000c6906103e862000476565b620000e3565b6001600160a01b0316608052620004a6565b601290565b6001600160a01b0382166200013e5760405162461bcd60e51b815260206004820152601f60248201527f45524332303a206d696e7420746f20746865207a65726f206164647265737300604482015260640160405180910390fd5b806002600082825462000152919062000490565b90915550506001600160a01b038216600081815260208181526040808320805486019055518481527fddf252ad1be2c89b69c2b068fc378daa952ba7f163c4a11628f55a4df523b3ef910160405180910390a35050565b505050565b600060208284031215620001c157600080fd5b81516001600160a01b0381168114620001d957600080fd5b9392505050565b634e487b7160e01b600052604160045260246000fd5b600181811c908216806200020b57607f821691505b6020821081036200022c57634e487b7160e01b600052602260045260246000fd5b50919050565b601f821115620001a957600081815260208120601f850160051c810160208610156200025b5750805b601f850160051c820191505b818110156200027c5782815560010162000267565b505050505050565b81516001600160401b03811115620002a057620002a0620001e0565b620002b881620002b18454620001f6565b8462000232565b602080601f831160018114620002f05760008415620002d75750858301515b600019600386901b1c1916600185901b1785556200027c565b600085815260208120601f198616915b82811015620003215788860151825594840194600190910190840162000300565b5085821015620003405787850151600019600388901b60f8161c191681555b5050505050600190811b01905550565b634e487b7160e01b600052601160045260246000fd5b600181815b80851115620003a75781600019048211156200038b576200038b62000350565b808516156200039957918102915b93841c93908002906200036b565b509250929050565b600082620003c0575060016200045f565b81620003cf575060006200045f565b8160018114620003e85760028114620003f35762000413565b60019150506200045f565b60ff84111562000407576200040762000350565b50506001821b6200045f565b5060208310610133831016604e8410600b841016171562000438575081810a6200045f565b62000444838362000366565b80600019048211156200045b576200045b62000350565b0290505b92915050565b6000620001d960ff841683620003af565b80820281158282048414176200045f576200045f62000350565b808201808211156200045f576200045f62000350565b608051610fb3620004d0600039600081816102b30152818161048a01526104f00152610fb36000f3fe6080604052600436106101145760003560e01c806351ad487f116100a057806395d89b411161006457806395d89b41146102ed578063a457c2d714610302578063a9059cbb14610322578063c4e10d7314610342578063dd62ed3e1461035757600080fd5b806351ad487f1461022e5780635f073c7f1461023657806370a082311461024b57806379cc6790146102815780638da5cb5b146102a157600080fd5b806323b872dd116100e757806323b872dd1461019d578063313ce567146101bd57806339509351146101d95780633ccfd60b146101f957806342966c681461020e57600080fd5b806306fdde0314610119578063095ea7b31461014457806313f553a31461017457806318160ddd1461017e575b600080fd5b34801561012557600080fd5b5061012e610377565b60405161013b9190610dc3565b60405180910390f35b34801561015057600080fd5b5061016461015f366004610e2d565b610409565b604051901515815260200161013b565b61017c610423565b005b34801561018a57600080fd5b506002545b60405190815260200161013b565b3480156101a957600080fd5b506101646101b8366004610e57565b610439565b3480156101c957600080fd5b506040516012815260200161013b565b3480156101e557600080fd5b506101646101f4366004610e2d565b61045d565b34801561020557600080fd5b5061017c61047f565b34801561021a57600080fd5b5061017c610229366004610e93565b6105a6565b61017c6105b0565b34801561024257600080fd5b5061018f600581565b34801561025757600080fd5b5061018f610266366004610eac565b6001600160a01b031660009081526020819052604090205490565b34801561028d57600080fd5b5061017c61029c366004610e2d565b610662565b3480156102ad57600080fd5b506102d57f000000000000000000000000000000000000000000000000000000000000000081565b6040516001600160a01b03909116815260200161013b565b3480156102f957600080fd5b5061012e61067b565b34801561030e57600080fd5b5061016461031d366004610e2d565b61068a565b34801561032e57600080fd5b5061016461033d366004610e2d565b610705565b34801561034e57600080fd5b5061017c610713565b34801561036357600080fd5b5061018f610372366004610ece565b6107c1565b60606003805461038690610f01565b80601f01602080910402602001604051908101604052809291908181526020018280546103b290610f01565b80156103ff5780601f106103d4576101008083540402835291602001916103ff565b820191906000526020600020905b8154815290600101906020018083116103e257829003601f168201915b5050505050905090565b6000336104178185856107ec565b60019150505b92915050565b671bc16d674ec800006104363382610911565b50565b6000336104478582856109d0565b610452858585610a4a565b506001949350505050565b60003361041781858561047083836107c1565b61047a9190610f51565b6107ec565b336001600160a01b037f000000000000000000000000000000000000000000000000000000000000000016146104ec5760405162461bcd60e51b815260206004820152600d60248201526c2737ba103a34329027bbb732b960991b60448201526064015b60405180910390fd5b60007f00000000000000000000000000000000000000000000000000000000000000006001600160a01b03164760405160006040518083038185875af1925050503d8060008114610559576040519150601f19603f3d011682016040523d82523d6000602084013e61055e565b606091505b50509050806104365760405162461bcd60e51b81526020600482015260146024820152732330b4b632b2103a379039b2b7321022ba3432b960611b60448201526064016104e3565b6104363382610bee565b34655af3107a4000146105f65760405162461bcd60e51b815260206004820152600e60248201526d125b9d985b1a59081a5b5c1bdc9d60921b60448201526064016104e3565b33600090815260056020819052604090912054106106565760405162461bcd60e51b815260206004820152601a60248201527f596f7527766520706c6179656420656e6f7567687420626f792100000000000060448201526064016104e3565b6106606001610d18565b565b61066d8233836109d0565b6106778282610bee565b5050565b60606004805461038690610f01565b6000338161069882866107c1565b9050838110156106f85760405162461bcd60e51b815260206004820152602560248201527f45524332303a2064656372656173656420616c6c6f77616e63652062656c6f77604482015264207a65726f60d81b60648201526084016104e3565b61045282868684036107ec565b600033610417818585610a4a565b33600090815260208190526040902054670de0b6b3a7640000111561077a5760405162461bcd60e51b815260206004820181905260248201527f496e73756666696369656e7420504c415920746f6b656e7320746f206275726e60448201526064016104e3565b61078c33670de0b6b3a7640000610bee565b6040513381527f370a73b23e5001c14b611269832d8079d83bc3b77c10697e51ac085a6dbf7d759060200160405180910390a1565b6001600160a01b03918216600090815260016020908152604080832093909416825291909152205490565b6001600160a01b03831661084e5760405162461bcd60e51b8152602060048201526024808201527f45524332303a20617070726f76652066726f6d20746865207a65726f206164646044820152637265737360e01b60648201526084016104e3565b6001600160a01b0382166108af5760405162461bcd60e51b815260206004820152602260248201527f45524332303a20617070726f766520746f20746865207a65726f206164647265604482015261737360f01b60648201526084016104e3565b6001600160a01b0383811660008181526001602090815260408083209487168084529482529182902085905590518481527f8c5be1e5ebec7d5bd14f71427d1e84f3dd0314c0f7b2291e5b200ac8c7c3b92591015b60405180910390a3505050565b6001600160a01b0382166109675760405162461bcd60e51b815260206004820152601f60248201527f45524332303a206d696e7420746f20746865207a65726f20616464726573730060448201526064016104e3565b80600260008282546109799190610f51565b90915550506001600160a01b038216600081815260208181526040808320805486019055518481527fddf252ad1be2c89b69c2b068fc378daa952ba7f163c4a11628f55a4df523b3ef910160405180910390a35050565b60006109dc84846107c1565b90506000198114610a445781811015610a375760405162461bcd60e51b815260206004820152601d60248201527f45524332303a20696e73756666696369656e7420616c6c6f77616e636500000060448201526064016104e3565b610a4484848484036107ec565b50505050565b6001600160a01b038316610aae5760405162461bcd60e51b815260206004820152602560248201527f45524332303a207472616e736665722066726f6d20746865207a65726f206164604482015264647265737360d81b60648201526084016104e3565b6001600160a01b038216610b105760405162461bcd60e51b815260206004820152602360248201527f45524332303a207472616e7366657220746f20746865207a65726f206164647260448201526265737360e81b60648201526084016104e3565b6001600160a01b03831660009081526020819052604090205481811015610b885760405162461bcd60e51b815260206004820152602660248201527f45524332303a207472616e7366657220616d6f756e7420657863656564732062604482015265616c616e636560d01b60648201526084016104e3565b6001600160a01b03848116600081815260208181526040808320878703905593871680835291849020805487019055925185815290927fddf252ad1be2c89b69c2b068fc378daa952ba7f163c4a11628f55a4df523b3ef910160405180910390a3610a44565b6001600160a01b038216610c4e5760405162461bcd60e51b815260206004820152602160248201527f45524332303a206275726e2066726f6d20746865207a65726f206164647265736044820152607360f81b60648201526084016104e3565b6001600160a01b03821660009081526020819052604090205481811015610cc25760405162461bcd60e51b815260206004820152602260248201527f45524332303a206275726e20616d6f756e7420657863656564732062616c616e604482015261636560f01b60648201526084016104e3565b6001600160a01b0383166000818152602081815260408083208686039055600280548790039055518581529192917fddf252ad1be2c89b69c2b068fc378daa952ba7f163c4a11628f55a4df523b3ef9101610904565b80610d585760405162461bcd60e51b815260206004820152601060248201526f5061796d656e74206e6f74206d61646560801b60448201526064016104e3565b336000908152600560205260408120805491610d7383610f64565b90915550674563918244f400009050610d8c3382610911565b6040513381527ffde0151cb035912fc21ff48e99544ba7e24bb1cdd3280cc2087dee6be40432d09060200160405180910390a15050565b600060208083528351808285015260005b81811015610df057858101830151858201604001528201610dd4565b506000604082860101526040601f19601f8301168501019250505092915050565b80356001600160a01b0381168114610e2857600080fd5b919050565b60008060408385031215610e4057600080fd5b610e4983610e11565b946020939093013593505050565b600080600060608486031215610e6c57600080fd5b610e7584610e11565b9250610e8360208501610e11565b9150604084013590509250925092565b600060208284031215610ea557600080fd5b5035919050565b600060208284031215610ebe57600080fd5b610ec782610e11565b9392505050565b60008060408385031215610ee157600080fd5b610eea83610e11565b9150610ef860208401610e11565b90509250929050565b600181811c90821680610f1557607f821691505b602082108103610f3557634e487b7160e01b600052602260045260246000fd5b50919050565b634e487b7160e01b600052601160045260246000fd5b8082018082111561041d5761041d610f3b565b600060018201610f7657610f76610f3b565b506001019056fea264697066735822122059d18954429ce5dab51542c1d01e4ecd4031edf8827b885774c3f19c9de4175e64736f6c63430008140033",
  "devdoc": {
    "events": {
      "Approval(address,address,uint256)": {
        "details": "Emitted when the allowance of a `spender` for an `owner` is set by a call to {approve}. `value` is the new allowance."
      },
      "Transfer(address,address,uint256)": {
        "details": "Emitted when `value` tokens are moved from one account (`from`) to another (`to`). Note that `value` may be zero."
      }
    },
    "kind": "dev",
    "methods": {
      "allowance(address,address)": {
        "details": "See {IERC20-allowance}."
      },
      "approve(address,uint256)": {
        "details": "See {IERC20-approve}. NOTE: If `amount` is the maximum `uint256`, the allowance is not updated on `transferFrom`. This is semantically equivalent to an infinite approval. Requirements: - `spender` cannot be the zero address."
      },
      "balanceOf(address)": {
        "details": "See {IERC20-balanceOf}."
      },
      "burn(uint256)": {
        "details": "Destroys `amount` tokens from the caller. See {ERC20-_burn}."
      },
      "burnFrom(address,uint256)": {
        "details": "Destroys `amount` tokens from `account`, deducting from the caller's allowance. See {ERC20-_burn} and {ERC20-allowance}. Requirements: - the caller must have allowance for ``accounts``'s tokens of at least `amount`."
      },
      "decimals()": {
        "details": "Returns the number of decimals used to get its user representation. For example, if `decimals` equals `2`, a balance of `505` tokens should be displayed to a user as `5.05` (`505 / 10 ** 2`). Tokens usually opt for a value of 18, imitating the relationship between Ether and Wei. This is the default value returned by this function, unless it's overridden. NOTE: This information is only used for _display_ purposes: it in no way affects any of the arithmetic of the contract, including {IERC20-balanceOf} and {IERC20-transfer}."
      },
      "decreaseAllowance(address,uint256)": {
        "details": "Atomically decreases the allowance granted to `spender` by the caller. This is an alternative to {approve} that can be used as a mitigation for problems described in {IERC20-approve}. Emits an {Approval} event indicating the updated allowance. Requirements: - `spender` cannot be the zero address. - `spender` must have allowance for the caller of at least `subtractedValue`."
      },
      "increaseAllowance(address,uint256)": {
        "details": "Atomically increases the allowance granted to `spender` by the caller. This is an alternative to {approve} that can be used as a mitigation for problems described in {IERC20-approve}. Emits an {Approval} event indicating the updated allowance. Requirements: - `spender` cannot be the zero address."
      },
      "name()": {
        "details": "Returns the name of the token."
      },
      "symbol()": {
        "details": "Returns the symbol of the token, usually a shorter version of the name."
      },
      "totalSupply()": {
        "details": "See {IERC20-totalSupply}."
      },
      "transfer(address,uint256)": {
        "details": "See {IERC20-transfer}. Requirements: - `to` cannot be the zero address. - the caller must have a balance of at least `amount`."
      },
      "transferFrom(address,address,uint256)": {
        "details": "See {IERC20-transferFrom}. Emits an {Approval} event indicating the updated allowance. This is not required by the EIP. See the note at the beginning of {ERC20}. NOTE: Does not update the allowance if the current allowance is the maximum `uint256`. Requirements: - `from` and `to` cannot be the zero address. - `from` must have a balance of at least `amount`. - the caller must have allowance for ``from``'s tokens of at least `amount`."
      }
    },
    "version": 1
  },
  "userdoc": {
    "kind": "user",
    "methods": {},
    "version": 1
  },
  "storageLayout": {
    "storage": [
      {
        "astId": 15,
        "contract": "contracts/YourContract.sol:YourContract",
        "label": "_balances",
        "offset": 0,
        "slot": "0",
        "type": "t_mapping(t_address,t_uint256)"
      },
      {
        "astId": 21,
        "contract": "contracts/YourContract.sol:YourContract",
        "label": "_allowances",
        "offset": 0,
        "slot": "1",
        "type": "t_mapping(t_address,t_mapping(t_address,t_uint256))"
      },
      {
        "astId": 23,
        "contract": "contracts/YourContract.sol:YourContract",
        "label": "_totalSupply",
        "offset": 0,
        "slot": "2",
        "type": "t_uint256"
      },
      {
        "astId": 25,
        "contract": "contracts/YourContract.sol:YourContract",
        "label": "_name",
        "offset": 0,
        "slot": "3",
        "type": "t_string_storage"
      },
      {
        "astId": 27,
        "contract": "contracts/YourContract.sol:YourContract",
        "label": "_symbol",
        "offset": 0,
        "slot": "4",
        "type": "t_string_storage"
      },
      {
        "astId": 796,
        "contract": "contracts/YourContract.sol:YourContract",
        "label": "_transactionsCount",
        "offset": 0,
        "slot": "5",
        "type": "t_mapping(t_address,t_uint256)"
      }
    ],
    "types": {
      "t_address": {
        "encoding": "inplace",
        "label": "address",
        "numberOfBytes": "20"
      },
      "t_mapping(t_address,t_mapping(t_address,t_uint256))": {
        "encoding": "mapping",
        "key": "t_address",
        "label": "mapping(address => mapping(address => uint256))",
        "numberOfBytes": "32",
        "value": "t_mapping(t_address,t_uint256)"
      },
      "t_mapping(t_address,t_uint256)": {
        "encoding": "mapping",
        "key": "t_address",
        "label": "mapping(address => uint256)",
        "numberOfBytes": "32",
        "value": "t_uint256"
      },
      "t_string_storage": {
        "encoding": "bytes",
        "label": "string",
        "numberOfBytes": "32"
      },
      "t_uint256": {
        "encoding": "inplace",
        "label": "uint256",
        "numberOfBytes": "32"
      }
    }
  }
}